18:01:29.125510 ARP, Request who-has 161.3.128.106 tell 161.3.128.184, length 46
	0x0000:  0001 0800 0604 0001 a4bb 6dc8 4f00 a103
	0x0010:  80b8 0000 0000 0000 a103 806a 0000 0000
	0x0020:  0000 0000 0000 0000 0000 0000 0000
18:01:29.338100 ARP, Request who-has tc-f01.univ-st-etienne.fr tell tc-f03.univ-st-etienne.fr, length 46
	0x0000:  0001 0800 0604 0001 6400 6a82 3cf6 a103
	0x0010:  8141 0000 0000 0000 a103 813d 0000 0000
	0x0020:  0000 0000 0000 0000 0000 0000 0000
18:01:29.444376 ARP, Request who-has 161.3.128.106 tell 161.3.128.183, length 46
	0x0000:  0001 0800 0604 0001 484d 7ec1 885b a103
	0x0010:  80b7 0000 0000 0000 a103 806a 0000 0000
	0x0020:  0000 0000 0000 0000 0000 0000 0000
18:01:29.487415 IP 161.3.129.167.65203 > broadcasthost.gvcp: UDP, length 8
	0x0000:  4500 0024 0abd 0000 8011 0d62 a103 81a7
	0x0010:  ffff ffff feb3 0f74 0010 8cf7 4201 0002
	0x0020:  0000 0001 0000 0000 0000 0000 0000
18:01:29.487752 IP 161.3.129.167.57151 > broadcasthost.gvcp: UDP, length 8
	0x0000:  4500 0024 0abe 0000 8011 0d61 a103 81a7
	0x0010:  ffff ffff df3f 0f74 0010 ac6b 4201 0002
	0x0020:  0000 0001 0000 0000 0000 0000 0000
18:01:29.502229 ARP, Request who-has 161.3.129.17 tell 161.3.129.192, length 46
	0x0000:  0001 0800 0604 0001 d0bf 9c0c 340f a103
	0x0010:  81c0 0000 0000 0000 a103 8111 0000 0000
	0x0020:  0000 0000 0000 0000 0000 0000 0000
18:01:29.732995 IP 161.3.129.166.54911 > broadcasthost.gvcp: UDP, length 8
	0x0000:  4500 0024 7b44 0000 8011 9cdb a103 81a6
	0x0010:  ffff ffff d67f 0f74 0010 b52c 4201 0002
	0x0020:  0000 0001 0000 0000 0000 0000 0000
18:01:29.740397 IP 161.3.128.114.50908 > 161.3.129.255.netbios-ns: UDP, length 50
	0x0000:  4500 004e 1d08 0000 8011 d91e a103 8072
	0x0010:  a103 81ff c6dc 0089 003a 2a39 3acd 0110
	0x0020:  0001 0000 0000 0000 2045 4447 5047 4f47
	0x0030:  4747 4a47 4846 4447 4648 4348 4747 4648
	0x0040:  4343 4143 4143 4142 4d00 0020 0001
18:01:29.766981 ARP, Request who-has roa-laspi.ujmse.local tell dcroa1.ujmse.local, length 46
	0x0000:  0001 0800 0604 0001 0050 56b7 5dad a103
	0x0010:  80ee 0000 0000 0000 a103 80f5 0000 0000
	0x0020:  0000 0000 0000 0000 0000 0000 0000
18:01:29.774509 STP 802.1w, Rapid STP, Flags [Learn, Forward], bridge-id 8080.4c:71:0c:ad:79:80.800e, length 42
	0x0000:  0000 0202 3c80 8000 21d7 6e55 8000 0000
	0x0010:  0c80 804c 710c ad79 8080 0e03 0014 0002
	0x0020:  000f 0000 0000 0002 0080
18:01:29.975765 IP 161.3.129.166.54908 > broadcasthost.gvcp: UDP, length 8
	0x0000:  4500 0024 7b45 0000 8011 9cda a103 81a6
	0x0010:  ffff ffff d67c 0f74 0010 b52f 4201 0002
	0x0020:  0000 0001 0000 0000 0000 0000 0000
18:01:30.045829 IP laspi-p15.univ-st-etienne.fr.61315 > dcroa1.ujmse.local.domain: 6911+ PTR? 61.129.3.161.in-addr.arpa. (43)
	0x0000:  4500 0047 6cc2 0000 ff11 0000 a103 81d2
	0x0010:  a103 80ee ef83 0035 0033 450c 1aff 0100
	0x0020:  0001 0000 0000 0000 0236 3103 3132 3901
	0x0030:  3303 3136 3107 696e 2d61 6464 7204 6172
	0x0040:  7061 0000 0c00 01
18:01:30.046611 IP 161.3.129.166.54912 > broadcasthost.gvcp: UDP, length 8
	0x0000:  4500 0024 7b46 0000 8011 9cd9 a103 81a6
	0x0010:  ffff ffff d680 0f74 0010 b52b 4201 0002
	0x0020:  0000 0001 0000 0000 0000 0000 0000
18:01:30.046831 IP dcroa1.ujmse.local.domain > laspi-p15.univ-st-etienne.fr.61315: 6911 1/0/0 PTR tc-f01.univ-st-etienne.fr. (82)
	0x0000:  4500 006e 6250 4000 8011 5367 a103 80ee
	0x0010:  a103 81d2 0035 ef83 005a b35d 1aff 8180
	0x0020:  0001 0001 0000 0000 0236 3103 3132 3901
	0x0030:  3303 3136 3107 696e 2d61 6464 7204 6172
	0x0040:  7061 0000 0c00 01c0 0c00 0c00 0100 00d6
	0x0050:  a300 1b06 7463 2d66 3031 0f75 6e69 762d
	0x0060:  7374 2d65 7469 656e 6e65 0266 7200
18:01:30.049199 IP laspi-p15.univ-st-etienne.fr.53027 > dcroa1.ujmse.local.domain: 36443+ PTR? 17.129.3.161.in-addr.arpa. (43)
	0x0000:  4500 0047 924e 0000 ff11 0000 a103 81d2
	0x0010:  a103 80ee cf23 0035 0033 450c 8e5b 0100
	0x0020:  0001 0000 0000 0000 0231 3703 3132 3901
	0x0030:  3303 3136 3107 696e 2d61 6464 7204 6172
	0x0040:  7061 0000 0c00 01
18:01:30.076905 ARP, Request who-has 161.3.128.159 tell 161.3.128.158, length 46
	0x0000:  0001 0800 0604 0001 9890 969e 5ee5 a103
	0x0010:  809e 0000 0000 0000 a103 809f 0000 0000
	0x0020:  0000 0000 0000 0000 0000 0000 0000
18:01:30.077076 ARP, Request who-has laspi-p15.univ-st-etienne.fr tell dcroa1.ujmse.local, length 46
	0x0000:  0001 0800 0604 0001 0050 56b7 5dad a103
	0x0010:  80ee 0000 0000 0000 a103 81d2 0000 0000
	0x0020:  0000 0000 0000 0000 0000 0000 0000
18:01:30.077121 ARP, Reply laspi-p15.univ-st-etienne.fr is-at 38:c9:86:53:ea:a2 (oui Unknown), length 28
	0x0000:  0001 0800 0604 0002 38c9 8653 eaa2 a103
	0x0010:  81d2 0050 56b7 5dad a103 80ee
18:01:30.077427 ARP, Request who-has 161.3.128.28 tell 161.3.128.27, length 46
	0x0000:  0001 0800 0604 0001 3417 ebe1 0b92 a103
	0x0010:  801b 0000 0000 0000 a103 801c 0000 0000
	0x0020:  0000 0000 0000 0000 0000 0000 0000
18:01:30.084284 IP dcroa1.ujmse.local.domain > laspi-p15.univ-st-etienne.fr.53027: 36443 NXDomain 0/1/0 (109)
	0x0000:  4500 0089 6251 0000 8011 934b a103 80ee
	0x0010:  a103 81d2 0035 cf23 0075 2700 8e5b 8183
	0x0020:  0001 0000 0001 0000 0231 3703 3132 3901
	0x0030:  3303 3136 3107 696e 2d61 6464 7204 6172
	0x0040:  7061 0000 0c00 01c0 1300 0600 0100 0003
	0x0050:  8400 3606 7374 726f 7068 0f75 6e69 762d
	0x0060:  7374 2d65 7469 656e 6e65 0266 7200 0472
	0x0070:  6f6f 74c0 3e78 77d8 6600 0054 6000 000e
	0x0080:  1000 0d2f 0000 002a 30
18:01:30.114599 IP met2-372.priv172.univ-st-etienne.fr.hsrp > 224.0.0.102.hsrp: HSRPv1
	0x0000:  45c0 0064 0000 0000 ff11 e256 ac10 4bfb
	0x0010:  e000 0066 07c1 07c1 0050 6282 0128 0200
	0x0020:  0504 0176 cc16 7e82 8829 0000 0096 0000
	0x0030:  0bb8 0000 2710 ac10 4a01 0000 0000 0000
	0x0040:  0000 0000 0000 041c 0100 0000 ac10 4bfb
	0x0050:  0000 0000 c209 dc83 35b2 3d16 9560 b48a
	0x0060:  2131 3568
18:01:30.126649 ARP, Request who-has 161.3.128.106 tell 161.3.128.184, length 46
	0x0000:  0001 0800 0604 0001 a4bb 6dc8 4f00 a103
	0x0010:  80b8 0000 0000 0000 a103 806a 0000 0000
	0x0020:  0000 0000 0000 0000 0000 0000 0000
18:01:30.325752 IP met1-372.priv172.univ-st-etienne.fr.hsrp > 224.0.0.102.hsrp: HSRPv1
	0x0000:  45c0 0064 0000 0000 ff11 e255 ac10 4bfc
	0x0010:  e000 0066 07c1 07c1 0050 507d 0128 0200
	0x0020:  0604 0176 cc16 7e82 87ad 0000 00c8 0000
	0x0030:  0bb8 0000 2710 ac10 4a01 0000 0000 0000
	0x0040:  0000 0000 0000 041c 0100 0000 ac10 4bfc
	0x0050:  0000 0000 a255 7c51 0cd3 26d2 2f06 926b
	0x0060:  0ad6 a493
18:01:30.337416 ARP, Request who-has tc-f01.univ-st-etienne.fr tell tc-f03.univ-st-etienne.fr, length 46
	0x0000:  0001 0800 0604 0001 6400 6a82 3cf6 a103
	0x0010:  8141 0000 0000 0000 a103 813d 0000 0000
	0x0020:  0000 0000 0000 0000 0000 0000 0000
18:01:30.345735 ARP, Request who-has 161.3.128.106 tell 161.3.128.183, length 46
	0x0000:  0001 0800 0604 0001 484d 7ec1 885b a103
	0x0010:  80b7 0000 0000 0000 a103 806a 0000 0000
	0x0020:  0000 0000 0000 0000 0000 0000 0000
18:01:30.415924 ARP, Request who-has 161.3.129.17 tell 161.3.129.192, length 46
	0x0000:  0001 0800 0604 0001 d0bf 9c0c 340f a103
	0x0010:  81c0 0000 0000 0000 a103 8111 0000 0000
	0x0020:  0000 0000 0000 0000 0000 0000 0000
18:01:30.445824 IP 161.3.129.167.49466 > broadcasthost.gvcp: UDP, length 8
	0x0000:  4500 0024 0abf 0000 8011 0d60 a103 81a7
	0x0010:  ffff ffff c13a 0f74 0010 ca70 4201 0002
	0x0020:  0000 0001 0000 0000 0000 0000 0000
18:01:30.498373 ARP, Request who-has tc-p10.univ-st-etienne.fr tell tc-f06.univ-st-etienne.fr, length 46
	0x0000:  0001 0800 0604 0001 6400 6a82 3984 a103
	0x0010:  8147 0000 0000 0000 a103 814c 0000 0000
	0x0020:  0000 0000 0000 0000 0000 0000 0000
18:01:30.550705 ARP, Request who-has 161.3.129.118 tell dcroa1.ujmse.local, length 46
	0x0000:  0001 0800 0604 0001 0050 56b7 5dad a103
	0x0010:  80ee 0000 0000 0000 a103 8176 0000 0000
	0x0020:  0000 0000 0000 0000 0000 0000 0000
18:01:30.804784 STP 802.1w, Rapid STP, Flags [Learn, Forward], bridge-id 8176.4c:71:0c:ad:79:80.800e, length 42
	0x0000:  0000 0202 3c81 7620 bbc0 24bf 0000 0000
	0x0010:  0881 764c 710c ad79 8080 0e02 0014 0002
	0x0020:  000f 0000 0000 0002 0176
18:01:30.804787 IP 161.3.129.167.49846 > broadcasthost.gvcp: UDP, length 8
	0x0000:  4500 0024 0ac0 0000 8011 0d5f a103 81a7
	0x0010:  ffff ffff c2b6 0f74 0010 c8f4 4201 0002
	0x0020:  0000 0001 0000 0000 0000 0000 0000
18:01:30.928731 IP 161.3.129.192.56208 > 239.255.255.250.ssdp: UDP, length 133
	0x0000:  4500 00a1 067e 0000 0111 a010 a103 81c0
	0x0010:  efff fffa db90 076c 008d 632f 4d2d 5345
	0x0020:  4152 4348 202a 2048 5454 502f 312e 310d
	0x0030:  0a48 6f73 743a 3233 392e 3235 352e 3235
	0x0040:  352e 3235 303a 3139 3030 0d0a 5354 3a75
	0x0050:  726e 3a73 6368 656d 6173 2d75 706e 702d
	0x0060:  6f72 673a 6465 7669 6365 3a49 6e74 6572
	0x0070:  6e65 7447 6174 6577 6179 4465 7669 6365
	0x0080:  3a31 0d0a 4d61 6e3a 2273 7364 703a 6469
	0x0090:  7363 6f76 6572 220d 0a4d 583a 330d 0a0d
	0x00a0:  0a
18:01:30.993348 ARP, Request who-has 161.3.128.159 tell 161.3.128.158, length 46
	0x0000:  0001 0800 0604 0001 9890 969e 5ee5 a103
	0x0010:  809e 0000 0000 0000 a103 809f 0000 0000
	0x0020:  0000 0000 0000 0000 0000 0000 0000
18:01:30.995883 IP 161.3.129.167.55753 > broadcasthost.gvcp: UDP, length 8
	0x0000:  4500 0024 0ac1 0000 8011 0d5e a103 81a7
	0x0010:  ffff ffff d9c9 0f74 0010 b1e1 4201 0002
	0x0020:  0000 0001 0000 0000 0000 0000 0000
18:01:31.026704 ARP, Request who-has 161.3.128.106 tell 161.3.128.184, length 46
	0x0000:  0001 0800 0604 0001 a4bb 6dc8 4f00 a103
	0x0010:  80b8 0000 0000 0000 a103 806a 0000 0000
	0x0020:  0000 0000 0000 0000 0000 0000 0000
18:01:31.088739 IP laspi-p15.univ-st-etienne.fr.62537 > dcroa1.ujmse.local.domain: 15048+ PTR? 159.128.3.161.in-addr.arpa. (44)
	0x0000:  4500 0048 ec88 0000 ff11 0000 a103 81d2
	0x0010:  a103 80ee f449 0035 0034 450d 3ac8 0100
	0x0020:  0001 0000 0000 0000 0331 3539 0331 3238
	0x0030:  0133 0331 3631 0769 6e2d 6164 6472 0461
	0x0040:  7270 6100 000c 0001
18:01:31.089235 IP dcroa1.ujmse.local.domain > laspi-p15.univ-st-etienne.fr.62537: 15048 NXDomain* 0/1/0 (131)
	0x0000:  4500 009f 6252 4000 8011 5334 a103 80ee
	0x0010:  a103 81d2 0035 f449 008b b7ca 3ac8 8583
	0x0020:  0001 0000 0001 0000 0331 3539 0331 3238
	0x0030:  0133 0331 3631 0769 6e2d 6164 6472 0461
	0x0040:  7270 6100 000c 0001 0331 3238 0133 0331
	0x0050:  3631 0769 6e2d 6164 6472 0461 7270 6100
	0x0060:  0006 0001 0000 0e10 0035 0664 6372 6f61
	0x0070:  3105 756a 6d73 6505 6c6f 6361 6c00 0a68
	0x0080:  6f73 746d 6173 7465 72c0 5500 0001 7900
	0x0090:  0003 8400 0002 5800 0151 8000 000e 10
18:01:31.090445 IP laspi-p15.univ-st-etienne.fr.60304 > dcroa1.ujmse.local.domain: 51170+ PTR? 28.128.3.161.in-addr.arpa. (43)
	0x0000:  4500 0047 2231 0000 ff11 0000 a103 81d2
	0x0010:  a103 80ee eb90 0035 0033 450c c7e2 0100
	0x0020:  0001 0000 0000 0000 0232 3803 3132 3801
	0x0030:  3303 3136 3107 696e 2d61 6464 7204 6172
	0x0040:  7061 0000 0c00 01
18:01:31.090784 IP dcroa1.ujmse.local.domain > laspi-p15.univ-st-etienne.fr.60304: 51170 NXDomain* 0/1/0 (130)
	0x0000:  4500 009e 6253 4000 8011 5334 a103 80ee
	0x0010:  a103 81d2 0035 eb90 008a 379e c7e2 8583
	0x0020:  0001 0000 0001 0000 0232 3803 3132 3801
	0x0030:  3303 3136 3107 696e 2d61 6464 7204 6172
	0x0040:  7061 0000 0c00 0103 3132 3801 3303 3136
	0x0050:  3107 696e 2d61 6464 7204 6172 7061 0000
	0x0060:  0600 0100 000e 1000 3506 6463 726f 6131
	0x0070:  0575 6a6d 7365 056c 6f63 616c 000a 686f
	0x0080:  7374 6d61 7374 6572 c054 0000 0179 0000
	0x0090:  0384 0000 0258 0001 5180 0000 0e10
18:01:31.092916 IP laspi-p15.univ-st-etienne.fr.52187 > dcroa1.ujmse.local.domain: 55013+ PTR? 76.129.3.161.in-addr.arpa. (43)
	0x0000:  4500 0047 1ca3 0000 ff11 0000 a103 81d2
	0x0010:  a103 80ee cbdb 0035 0033 450c d6e5 0100
	0x0020:  0001 0000 0000 0000 0237 3603 3132 3901
	0x0030:  3303 3136 3107 696e 2d61 6464 7204 6172
	0x0040:  7061 0000 0c00 01
18:01:31.095539 IP dcroa1.ujmse.local.domain > laspi-p15.univ-st-etienne.fr.52187: 55013 1/0/0 PTR tc-p10.univ-st-etienne.fr. (82)
	0x0000:  4500 006e 6254 4000 8011 5363 a103 80ee
	0x0010:  a103 81d2 0035 cbdb 005a 389a d6e5 8180
	0x0020:  0001 0001 0000 0000 0237 3603 3132 3901
	0x0030:  3303 3136 3107 696e 2d61 6464 7204 6172
	0x0040:  7061 0000 0c00 01c0 0c00 0c00 0100 0151
	0x0050:  7f00 1b06 7463 2d70 3130 0f75 6e69 762d
	0x0060:  7374 2d65 7469 656e 6e65 0266 7200
18:01:31.136412 ARP, Request who-has 169.254.169.254 tell qlio-p01.univ-st-etienne.fr, length 46
	0x0000:  0001 0800 0604 0001 d89e f300 d5cf a103
	0x0010:  8166 0000 0000 0000 a9fe a9fe 0000 0000
	0x0020:  0000 0000 0000 0000 0000 0000 0000
